:0400000090EF3BF052
:1077200000EE43F0160EEE6AE806FDE10001F3EF0D
:107730003EF0185019101A10D8B406D0000E181ABE
:10774000000E191A800E1A1A18C018F019C019F074
:107750001AC01AF012002A502B102C10D8B406D0E0
:10776000000E2A1A000E2B1A800E2C1A27C01BF0AE
:1077700028C01CF029C01DF02AC01EF02BC01FF02D
:107780002CC020F01DEC3EF01BC027F01CC028F0E0
:107790001DC029F0120003AE16D001C007F002C0D0
:1077A00008F003C009F0071E081E091E072A000E74
:1077B00008220922000E0724016E000E0820026E26
:1077C000800E0920036E06AE16D004C007F005C077
:1077D00008F006C009F0071E081E091E072A000E41
:1077E00008220922000E0724046E000E0820056EF0
:1077F000800E0920066E000E011A000E021A800E7D
:10780000031A000E041A000E051A800E061A045000
:10781000015C0550025806500358D8B002D0D890E9
:107820001200D88012000450D8B405D001500210C4
:107830000310D8A40CD0000E016E000E026E000ED4
:10784000036E1200042AD890033202320132000E75
:107850000114066E000E0214076EFE0E0314086E6D
:10786000065007100810D8B40CD0ECD7042A010E2B
:107870000126000E0222000E0322D89003320232AB
:107880000132000E0114066E000E0214076EFF0E88
:107890000314086E065007100810D8B406D0E6D7B7
:1078A0000406D89001360236033602BE03D0020E1B
:1078B0000460F6D704A0029ED8900432045003124C
:1078C0000550D8A4038E01C001F002C002F003C02D
:1078D00003F0120029C02DF02E6A2F6A28342D36AD
:1078E00001E32E802D50346E3450D8A407D0000E02
:1078F000276E000E286E000E296E12002CC02DF08F
:107900002E6A2F6A2B342D3601E32E802D50356ED2
:107910003550D8A407D0000E276E000E286E000E3A
:10792000296E1200000E316E000E326E000E336EA4
:107930003550890F345E29C035F02C50351A800E31
:107940003516288EFF0E2716FF0E2816000E291654
:107950002B8EFF0E2A16FF0E2B16000E2C16180E5D
:10796000306ED8903136323633362A50275C2B5061
:1079700028582C502958D8A007D02A50275E2B50C1
:10798000285A2C50295A3180D89027362836293643
:10799000302EE7D731C001F032C002F033C003F01F
:1079A00034C004F035C005F013EC3CF001C027F002
:1079B00002C028F003C029F012000BC00FF0106ABB
:1079C000116A0A340F3601E310800F50126E125004
:1079D000D8A407D0000E096E000E0A6E000E0B6EC2
:1079E00012000EC00FF0106A116A0D340F3601E359
:1079F00010800F50176E1750D8A407D0000E096ED4
:107A0000000E0A6E000E0B6E120017507B0F12262E
:107A10000BC017F00E50171A800E17160A8E0D8E17
:107A2000FF0E0C16FF0E0D16000E0E16000E136E36
:107A3000000E146E000E156E070E166E09A006D00D
:107A40000C5013260D5014220E501522D8900B32D4
:107A50000A320932D8900C360D360E36162EEED775
:107A6000090E166E09A006D00C5013260D501422D4
:107A70000E501522D8900B320A320932D8901532A6
:107A800014321332162EEED713C001F014C002F0D8
:107A900015C003F012C004F017C005F013EC3CF061
:107AA00001C009F002C00AF003C00BF01200000E82
:107AB000016E000E026E000E036E2DC004F02EC08B
:107AC00005F02FC006F0CBEC3BF0D8A00DD02FAEC8
:107AD00004D0000E566E210E556E000E2D6E000E57
:107AE0002E6E000E2F6E12002DC036F02EC037F015
:107AF0002FC038F02DC030F02EC031F02FC032F042
:107B0000301E311E321E302A000E31223222C80EA3
:107B100030243D6E6E0E31203E6EBE0E32203F6E22
:107B2000D8903F323E323D32000E365E800E375ADC
:107B3000000E385A040E396E3DC033F03EC034F0AA
:107B40003FC035F03DC009F03EC00AF03FC00BF029
:107B500036C00CF037C00DF038C00EF0DDEC3CF054
:107B600009C03AF00AC03BF00BC03CF03AC009F043
:107B70003BC00AF03CC00BF03DC00CF03EC00DF025
:107B80003FC00EF0DDEC3CF009C03AF00AC03BF01B
:107B90000BC03CF03AC009F03BC00AF03CC00BF00F
:107BA0003DC00CF03EC00DF03FC00EF0DDEC3CF0EF
:107BB00009C03AF00AC03BF00BC03CF03DC009F0F0
:107BC0003EC00AF03FC00BF0000E0C6EC00E0D6EF2
:107BD0003F0E0E6EDDEC3CF009C03DF00AC03EF0F9
:107BE0000BC03FF03DC027F03EC028F03FC029F059
:107BF0003AC02AF03BC02BF03CC02CF0ABEC3BF081
:107C000027C03DF028C03EF029C03FF0392E94D760
:107C10003DC009F03EC00AF03FC00BF02DC00CF093
:107C20002EC00DF02FC00EF0DDEC3CF009C02DF0A1
:107C30000AC02EF00BC02FF012001DC021F0226AE6
:107C4000236A1C34213601E322802150266E20C095
:107C500021F0226A236A1F34213601E32280215059
:107C6000256E2650D8B40BD02550265CD8B00ED047
:107C7000265000082524216E180E216407D01EC04E
:107C80001BF01FC01CF020C01DF012002550D8B4FE
:107C90000BD02650255CD8B00ED0255000082624E5
:107CA000216E180E216407D01BC01BF01CC01CF0F5
:107CB0001DC01DF01200060E246E1DBE248E20BEB7
:107CC000248C1C8EFF0E1B16FF0E1C16000E1D169C
:107CD0001F8EFF0E1E16FF0E1F16000E20162550BB
:107CE000265CD8B01BD0D8901E361F36203625060D
:107CF00026502518D8B40DD0240624C021F0070E34
:107D00002116D8B406D0EFD7D8901D321C321B32C2
:107D1000262A25502618D8B41FD0F6D72650255C21
:107D2000D8B01AD0D8901B361C361D3626062650E1
:107D30002518D8B40DD0240624C021F0070E211632
:107D4000D8B406D0EFD7D89020321F321E32252A61
:107D500025502618D8A4F7D724AE0CD0FF0E1B1A36
:107D6000FF0E1C1AFF0E1D1A010E1B26000E1C22F0
:107D7000000E1D2224AC0CD0FF0E1E1AFF0E1F1A7F
:107D8000FF0E201A010E1E26000E1F22000E2022BA
:107D9000000E246E1B501E261C501F221D50202238
:107DA00020AE0ED0FF0E1E1AFF0E1F1AFF0E201A55
:107DB000010E1E26000E1F22000E2022010E246E30
:107DC0001EC001F01FC002F020C003F026C004F066
:107DD00024C005F013EC3CF001C01BF002C01CF005
:107DE00003C01DF01200000E596E400E5A6E400E78
:107DF0005B6E000E5C6E100E5D6E410E5E6E000ED0
:107E00000001606FA80E0001616FC20E0001626F79
:107E100059505A105B10D8B400EF00F060C00CF05D
:107E200061C00DF062C00EF059C009F05AC00AF0EE
:107E30005BC00BF0DDEC3CF009C040F00AC041F043
:107E40000BC042F05CC00CF05DC00DF05EC00EF0E7
:107E50005CC009F05DC00AF05EC00BF0DDEC3CF0E8
:107E600009C01BF00AC01CF00BC01DF0000E0C6E08
:107E7000800E0D6E400E0E6E40C009F041C00AF03B
:107E800042C00BF0DDEC3CF009C018F00AC019F05C
:107E90000BC01AF099EC3BF018C01EF019C01FF08F
:107EA0001AC020F01DEC3EF01BC043F01CC044F093
:107EB0001DC045F045BE00EF00F043C02DF044C0AA
:107EC0002EF045C02FF057EC3DF02DC046F02EC0EF
:107ED00047F02FC048F046C01EF047C01FF048C012
:107EE00020F05CC018F05DC019F05EC01AF099EC8B
:107EF0003BF018C01BF019C01CF01AC01DF01DEC9F
:107F00003EF01BC027F01CC028F01DC029F0000E59
:107F10000C6E000E0D6E400E0E6E59C009F05AC068
:107F20000AF05BC00BF0DDEC3CF009C02AF00AC09F
:107F30002BF00BC02CF06AEC3CF027C049F028C0B5
:107F40004AF029C04BF046C01EF047C01FF048C0A1
:107F500020F05CC01BF05DC01CF05EC01DF01DEC8D
:107F60003EF01BC018F01CC019F01DC01AF099ECAF
:107F70003BF018C027F019C028F01AC029F0000EF5
:107F80000C6E000E0D6E400E0E6E59C009F05AC0F8
:107F90000AF05BC00BF0DDEC3CF009C02AF00AC02F
:107FA0002BF00BC02CF06AEC3CF027C04CF028C042
:107FB0004DF029C04EF0000E526EA00E516E000E14
:107FC000586E000E576E0BD0FD0E5126FF0E52223A
:107FD000574A582A320E57185810D8B408D052BEF3
:107FE00006D05250F1E1030E515CD8B0EDD7000E2F
:107FF000506E000E4F6E000E546E000E536EFFD783
:020000040020DA
:08000000FFFFFFFFFFFFFFFF00
:020000040030CA
:0E00000000051F1FFF8385FF0FC00FE00F409C
:00000001FF
