:0400000012EF3DF0CE
:1079F7001E1640CD5C400300610C6E0C50016E02F8
:107A07006A036A8E0E046E000E056E8BEC3DF00164
:107A1700C009F002C00AF003C00BF01200F70EF61F
:107A27006E790EF76E000EF86E00EE2AF010EE0972
:107A3700F00900F5CFEEFFE550E150FAE1000EF84E
:107A47006E00015CEF3EF0000E0C6E0AAE06D00928
:107A57006C0A1ED8B00A2A010E0C6E09C001F00A82
:107A6700C002F0036A8E0E046E0CC005F08BEC3D6D
:107A7700F001C009F002C00AF003C00BF0120003C6
:107A8700AE16D001C007F002C008F003C009F00726
:107A97001E081E091E072A000E08220922000E07CB
:107AA70024016E000E0820026E800E0920036E0668
:107AB700AE16D004C007F005C008F006C009F007ED
:107AC7001E081E091E072A000E08220922000E079B
:107AD70024046E000E0820056E800E0920066E0035
:107AE7000E011A000E021A800E031A000E041A0065
:107AF7000E051A800E061A0450015C05500258063E
:107B0700500358D8B002D0D8901200D88012000481
:107B170050D8B405D0015002100310D8A40CD000DF
:107B27000E016E000E026E000E036E1200042AD8BC
:107B370090033202320132000E0114066E000E026B
:107B470014076EFE0E0314086E065007100810D8AF
:107B5700B40CD0ECD7042A010E0126000E02220035
:107B67000E0322D890033202320132000E011406AE
:107B77006E000E0214076EFF0E0314086E06500700
:107B8700100810D8B406D0E6D70406D890013602FC
:107B970036033602BE03D0020E0460F6D704A002F5
:107BA7009ED8900432045003120550D8A4038E01C6
:107BB700C001F002C002F003C003F012000FC013AF
:107BC700F0146A156A0E34133601E3148013501645
:107BD7006E1650D8A407D0000E0D6E000E0E6E0064
:107BE7000E0F6E120012C013F0146A156A113413C7
:107BF7003601E3148013501B6E1B50D8A407D00026
:107C07000E0D6E000E0E6E000E0F6E12001B507BD7
:107C17000F16260FC01BF012501B1A800E1B160ED4
:107C27008E118EFF0E1016FF0E1116000E12160083
:107C37000E176E000E186E000E196E070E1A6E0DD7
:107C4700A006D0105017261150182212501922D80A
:107C5700900F320E320D32D8901036113612361A76
:107C67002EEED7090E1A6E0DA006D010501726114A
:107C770050182212501922D8900F320E320D32D8D6
:107C8700901932183217321A2EEED717C001F01892
:107C9700C002F019C003F016C004F01BC005F08B3A
:107CA700EC3DF001C00DF002C00EF003C00FF01262
:107CB70000325000EC3DF009C01CF00AC01DF00B6B
:107CC700C01EF02DC01FF02EC020F02FC021F02ABB
:107CD700EC3FF01CC033F01DC034F01EC035F0007F
:107CE7000E376E000E366E37BE06D0375057E10A94
:107CF7000E365CD8B053D033C01CF034C01DF035FD
:107D0700C01EF02AC010F02BC011F02CC012F036A4
:107D1700C009F037C00AF027EC3DF009C00DF00AA2
:107D2700C00EF00BC00FF0E2EC3DF00DC01FF00EDF
:107D3700C020F00FC021F02AEC3FF01CC033F01D2B
:107D4700C034F01EC035F0000E336E000E346E40A6
:107D57000E356E000E016E200E026E410E036E335D
:107D6700C004F034C005F035C006F043EC3DF0D850
:107D7700A015D0400E2B1809E1400E2C182A10D858
:107D8700A404D0000E2A6E000E03D01E0E2A6E1613
:107D97000E2B6E400E2C6E364A372AA5D72DC01CE7
:107DA700F02EC01DF02FC01EF0000E1F6E800E209B
:107DB7006E3F0E216E2AEC3FF01CC02AF01DC02B2F
:107DC700F01EC02CF0000E2D6E000E2E6E000E2F32
:107DD7006E2DC001F02EC002F02FC003F0000E047C
:107DE7006E800E056E3F0E066E43EC3DF0D8A01573
:107DF700D0D5D7000E2D6E000E2E6E000E0BD000C4
:107E07000E2D6E200E2E6E410E2F6E000E2D6EC89B
:107E17000E2E6E420E2F6E00EF00F036C028F037A0
:107E2700C029F02950000AD8A4F0D72850000AD852
:107E3700B43FD7010AD8B4DDD7030AD8B4E0D701D5
:107E47000AD8B4DDD7070AD8B4DAD7DFD71EC022DD
:107E5700F0236A246A1D34223601E3238022502747
:107E67006E21C022F0236A246A2034223601E323DC
:107E7700802250266E2750D8B40BD02650275CD8C6
:107E8700B00ED0275000082624226E180E22640751
:107E9700D01FC01CF020C01DF021C01EF01200260C
:107EA70050D8B40BD02750265CD8B00ED02650003F
:107EB700082724226E180E226407D01CC01CF01D50
:107EC700C01DF01EC01EF01200060E256E1EBE2538
:107ED7008E21BE258C1D8EFF0E1C16FF0E1D160053
:107EE7000E1E16208EFF0E1F16FF0E2016000E21E7
:107EF700162650275CD8B01BD0D8901F36203621C5
:107F070036260627502618D8B40DD0250625C022B8
:107F1700F0070E2216D8B406D0EFD7D8901E321D20
:107F2700321C32272A26502718D8B41FD0F6D72755
:107F370050265CD8B01AD0D8901C361D361E36276E
:107F47000627502618D8B40DD0250625C022F007DD
:107F57000E2216D8B406D0EFD7D890213220321F80
:107F670032262A26502718D8A4F7D725AE0CD0FFDB
:107F77000E1C1AFF0E1D1AFF0E1E1A010E1C2600DC
:107F87000E1D22000E1E2225AC0CD0FF0E1F1AFF5D
:107F97000E201AFF0E211A010E1F26000E202200A6
:107FA7000E2122000E256E1C501F261D5020221E5A
:107FB70050212221AE0ED0FF0E1F1AFF0E201AFFEE
:107FC7000E211A010E1F26000E2022000E2122016B
:107FD7000E256E1FC001F020C002F021C003F0275C
:107FE700C004F025C005F08BEC3DF001C01CF00289
:097FF700C01DF003C01EF01200D1
:00000001FF
